{
  "_format": "hh-sol-artifact-1",
  "contractName": "SocialNetwork",
  "sourceName": "contracts/SocialNetwork.sol",
  "abi": [
    {
      "anonymous": false,
      "inputs": [
        {
          "indexed": true,
          "internalType": "address",
          "name": "user",
          "type": "address"
        },
        {
          "indexed": false,
          "internalType": "uint256",
          "name": "postId",
          "type": "uint256"
        },
        {
          "indexed": false,
          "internalType": "string",
          "name": "content",
          "type": "string"
        },
        {
          "indexed": false,
          "internalType": "string",
          "name": "image",
          "type": "string"
        }
      ],
      "name": "NewPost",
      "type": "event"
    },
    {
      "anonymous": false,
      "inputs": [
        {
          "indexed": true,
          "internalType": "address",
          "name": "user",
          "type": "address"
        },
        {
          "indexed": true,
          "internalType": "uint256",
          "name": "postId",
          "type": "uint256"
        }
      ],
      "name": "PostLiked",
      "type": "event"
    },
    {
      "inputs": [
        {
          "internalType": "string",
          "name": "_content",
          "type": "string"
        },
        {
          "internalType": "string",
          "name": "_imageUrl",
          "type": "string"
        }
      ],
      "name": "createPost",
      "outputs": [],
      "stateMutability": "nonpayable",
      "type": "function"
    },
    {
      "inputs": [],
      "name": "getAllPosts",
      "outputs": [
        {
          "components": [
            {
              "internalType": "uint256",
              "name": "id",
              "type": "uint256"
            },
            {
              "internalType": "address",
              "name": "author",
              "type": "address"
            },
            {
              "internalType": "string",
              "name": "content",
              "type": "string"
            },
            {
              "internalType": "string",
              "name": "imageUrl",
              "type": "string"
            },
            {
              "internalType": "uint256",
              "name": "likeCount",
              "type": "uint256"
            }
          ],
          "internalType": "struct SocialNetwork.Post[]",
          "name": "",
          "type": "tuple[]"
        }
      ],
      "stateMutability": "view",
      "type": "function"
    },
    {
      "inputs": [],
      "name": "getAllUsers",
      "outputs": [
        {
          "internalType": "address[]",
          "name": "",
          "type": "address[]"
        },
        {
          "internalType": "string[]",
          "name": "",
          "type": "string[]"
        }
      ],
      "stateMutability": "view",
      "type": "function"
    },
    {
      "inputs": [
        {
          "internalType": "uint256",
          "name": "_postId",
          "type": "uint256"
        }
      ],
      "name": "getLikeCount",
      "outputs": [
        {
          "internalType": "uint256",
          "name": "",
          "type": "uint256"
        }
      ],
      "stateMutability": "view",
      "type": "function"
    },
    {
      "inputs": [
        {
          "internalType": "uint256",
          "name": "_postId",
          "type": "uint256"
        }
      ],
      "name": "getPost",
      "outputs": [
        {
          "components": [
            {
              "internalType": "uint256",
              "name": "id",
              "type": "uint256"
            },
            {
              "internalType": "address",
              "name": "author",
              "type": "address"
            },
            {
              "internalType": "string",
              "name": "content",
              "type": "string"
            },
            {
              "internalType": "string",
              "name": "imageUrl",
              "type": "string"
            },
            {
              "internalType": "uint256",
              "name": "likeCount",
              "type": "uint256"
            }
          ],
          "internalType": "struct SocialNetwork.Post",
          "name": "",
          "type": "tuple"
        }
      ],
      "stateMutability": "view",
      "type": "function"
    },
    {
      "inputs": [
        {
          "internalType": "address",
          "name": "_user",
          "type": "address"
        }
      ],
      "name": "getUser",
      "outputs": [
        {
          "internalType": "string",
          "name": "username",
          "type": "string"
        },
        {
          "internalType": "bool[]",
          "name": "likedPosts",
          "type": "bool[]"
        }
      ],
      "stateMutability": "view",
      "type": "function"
    },
    {
      "inputs": [
        {
          "internalType": "address",
          "name": "_user",
          "type": "address"
        },
        {
          "internalType": "uint256",
          "name": "_postId",
          "type": "uint256"
        }
      ],
      "name": "hasLikedPost",
      "outputs": [
        {
          "internalType": "bool",
          "name": "",
          "type": "bool"
        }
      ],
      "stateMutability": "view",
      "type": "function"
    },
    {
      "inputs": [
        {
          "internalType": "uint256",
          "name": "_postId",
          "type": "uint256"
        }
      ],
      "name": "likePost",
      "outputs": [],
      "stateMutability": "nonpayable",
      "type": "function"
    },
    {
      "inputs": [
        {
          "internalType": "uint256",
          "name": "",
          "type": "uint256"
        }
      ],
      "name": "posts",
      "outputs": [
        {
          "internalType": "uint256",
          "name": "id",
          "type": "uint256"
        },
        {
          "internalType": "address",
          "name": "author",
          "type": "address"
        },
        {
          "internalType": "string",
          "name": "content",
          "type": "string"
        },
        {
          "internalType": "string",
          "name": "imageUrl",
          "type": "string"
        },
        {
          "internalType": "uint256",
          "name": "likeCount",
          "type": "uint256"
        }
      ],
      "stateMutability": "view",
      "type": "function"
    },
    {
      "inputs": [
        {
          "internalType": "string",
          "name": "_username",
          "type": "string"
        }
      ],
      "name": "setUsername",
      "outputs": [],
      "stateMutability": "nonpayable",
      "type": "function"
    }
  ],
  "bytecode": "0x608060405234801561001057600080fd5b50612592806100206000396000f3fe608060405234801561001057600080fd5b506004361061009e5760003560e01c80636f77926b116100665780636f77926b14610171578063725009d3146101a2578063e2842d79146101be578063e9a9f051146101dd578063ed59313a1461020d5761009e565b80630b1e7f83146100a357806330561100146100d7578063392338f5146100f557806340731c24146101115780634ef576ad14610141575b600080fd5b6100bd60048036038101906100b891906115bc565b610229565b6040516100ce9594939291906116c9565b60405180910390f35b6100df61038f565b6040516100ec91906118d1565b60405180910390f35b61010f600480360381019061010a9190611a28565b6105fb565b005b61012b600480360381019061012691906115bc565b6108c5565b6040516101389190611b1d565b60405180910390f35b61015b600480360381019061015691906115bc565b610ad1565b6040516101689190611b3f565b60405180910390f35b61018b60048036038101906101869190611b86565b610b41565b604051610199929190611c7d565b60405180910390f35b6101bc60048036038101906101b791906115bc565b610db0565b005b6101c6611095565b6040516101d4929190611e25565b60405180910390f35b6101f760048036038101906101f29190611e5c565b6112c8565b6040516102049190611eab565b60405180910390f35b61022760048036038101906102229190611ec6565b611383565b005b60016020528060005260406000206000915090508060000154908060010160009054906101000a900473ffffffffffffffffffffffffffffffffffffffff169080600201805461027890611f3e565b80601f01602080910402602001604051908101604052809291908181526020018280546102a490611f3e565b80156102f15780601f106102c6576101008083540402835291602001916102f1565b820191906000526020600020905b8154815290600101906020018083116102d457829003601f168201915b50505050509080600301805461030690611f3e565b80601f016020809104026020016040519081016040528092919081815260200182805461033290611f3e565b801561037f5780601f106103545761010080835404028352916020019161037f565b820191906000526020600020905b81548152906001019060200180831161036257829003601f168201915b5050505050908060040154905085565b6060600060028054905067ffffffffffffffff8111156103b2576103b16118fd565b5b6040519080825280602002602001820160405280156103eb57816020015b6103d861152d565b8152602001906001900390816103d05790505b50905060005b6002805490508110156105f357600160006002838154811061041657610415611f6f565b5b906000526020600020015481526020019081526020016000206040518060a0016040529081600082015481526020016001820160009054906101000a900473ffffffffffffffffffffffffffffffffffffffff1673ffffffffffffffffffffffffffffffffffffffff1673ffffffffffffffffffffffffffffffffffffffff1681526020016002820180546104aa90611f3e565b80601f01602080910402602001604051908101604052809291908181526020018280546104d690611f3e565b80156105235780601f106104f857610100808354040283529160200191610523565b820191906000526020600020905b81548152906001019060200180831161050657829003601f168201915b5050505050815260200160038201805461053c90611f3e565b80601f016020809104026020016040519081016040528092919081815260200182805461056890611f3e565b80156105b55780601f1061058a576101008083540402835291602001916105b5565b820191906000526020600020905b81548152906001019060200180831161059857829003601f168201915b505050505081526020016004820154815250508282815181106105db576105da611f6f565b5b602002602001018190525080806001019150506103f1565b508091505090565b600460003373ffffffffffffffffffffffffffffffffffffffff1673ffffffffffffffffffffffffffffffffffffffff16815260200190815260200160002060000160009054906101000a900460ff1661070e576001600460003373ffffffffffffffffffffffffffffffffffffffff1673ffffffffffffffffffffffffffffffffffffffff16815260200190815260200160002060000160006101000a81548160ff0219169083151502179055506003339080600181540180825580915050600190039060005260206000200160009091909190916101000a81548173ffffffffffffffffffffffffffffffffffffffff021916908373ffffffffffffffffffffffffffffffffffffffff1602179055505b6000825111610752576040517f08c379a000000000000000000000000000000000000000000000000000000000815260040161074990611fea565b60405180910390fd5b6000806000815461076290612039565b91905081905590506040518060a001604052808281526020013373ffffffffffffffffffffffffffffffffffffffff1681526020018481526020018381526020016000815250600160008381526020019081526020016000206000820151816000015560208201518160010160006101000a81548173ffffffffffffffffffffffffffffffffffffffff021916908373ffffffffffffffffffffffffffffffffffffffff1602179055506040820151816002019081610821919061222d565b506060820151816003019081610837919061222d565b506080820151816004015590505060028190806001815401808255809150506001900390600052602060002001600090919091909150553373ffffffffffffffffffffffffffffffffffffffff167f77a664279365f380c6fd1496feacd22dfa4d68c9ad2b1a0fe2f21dc1b9518d698285856040516108b8939291906122ff565b60405180910390a2505050565b6108cd61152d565b6000821180156108df57506000548211155b61091e576040517f08c379a000000000000000000000000000000000000000000000000000000000815260040161091590612390565b60405180910390fd5b600160008381526020019081526020016000206040518060a0016040529081600082015481526020016001820160009054906101000a900473ffffffffffffffffffffffffffffffffffffffff1673ffffffffffffffffffffffffffffffffffffffff1673ffffffffffffffffffffffffffffffffffffffff1681526020016002820180546109ac90611f3e565b80601f01602080910402602001604051908101604052809291908181526020018280546109d890611f3e565b8015610a255780601f106109fa57610100808354040283529160200191610a25565b820191906000526020600020905b815481529060010190602001808311610a0857829003601f168201915b50505050508152602001600382018054610a3e90611f3e565b80601f0160208091040260200160405190810160405280929190818152602001828054610a6a90611f3e565b8015610ab75780601f10610a8c57610100808354040283529160200191610ab7565b820191906000526020600020905b815481529060010190602001808311610a9a57829003601f168201915b505050505081526020016004820154815250509050919050565b60008082118015610ae457506000548211155b610b23576040517f08c379a0000000000000000000000000000000000000000000000000000000008152600401610b1a90612390565b60405180910390fd5b60016000838152602001908152602001600020600401549050919050565b606080600460008473ffffffffffffffffffffffffffffffffffffffff1673ffffffffffffffffffffffffffffffffffffffff16815260200190815260200160002060000160009054906101000a900460ff16610bd3576040517f08c379a0000000000000000000000000000000000000000000000000000000008152600401610bca906123fc565b60405180910390fd5b6000805467ffffffffffffffff811115610bf057610bef6118fd565b5b604051908082528060200260200182016040528015610c1e5781602001602082028036833780820191505090505b5090506000600190505b6000548111610cd657600460008673ffffffffffffffffffffffffffffffffffffffff1673ffffffffffffffffffffffffffffffffffffffff168152602001908152602001600020600201600082815260200190815260200160002060009054906101000a900460ff1682600183610ca0919061241c565b81518110610cb157610cb0611f6f565b5b6020026020010190151590811515815250508080610cce90612039565b915050610c28565b50600460008573ffffffffffffffffffffffffffffffffffffffff1673ffffffffffffffffffffffffffffffffffffffff16815260200190815260200160002060010181818054610d2690611f3e565b80601f0160208091040260200160405190810160405280929190818152602001828054610d5290611f3e565b8015610d9f5780601f10610d7457610100808354040283529160200191610d9f565b820191906000526020600020905b815481529060010190602001808311610d8257829003601f168201915b505050505091509250925050915091565b600460003373ffffffffffffffffffffffffffffffffffffffff1673ffffffffffffffffffffffffffffffffffffffff16815260200190815260200160002060000160009054906101000a900460ff16610ec3576001600460003373ffffffffffffffffffffffffffffffffffffffff1673ffffffffffffffffffffffffffffffffffffffff16815260200190815260200160002060000160006101000a81548160ff0219169083151502179055506003339080600181540180825580915050600190039060005260206000200160009091909190916101000a81548173ffffffffffffffffffffffffffffffffffffffff021916908373ffffffffffffffffffffffffffffffffffffffff1602179055505b600081118015610ed557506000548111155b610f14576040517f08c379a0000000000000000000000000000000000000000000000000000000008152600401610f0b90612390565b60405180910390fd5b600460003373ffffffffffffffffffffffffffffffffffffffff1673ffffffffffffffffffffffffffffffffffffffff168152602001908152602001600020600201600082815260200190815260200160002060009054906101000a900460ff1615610fb5576040517f08c379a0000000000000000000000000000000000000000000000000000000008152600401610fac9061249c565b60405180910390fd5b60018060008381526020019081526020016000206004016000828254610fdb91906124bc565b925050819055506001600460003373ffffffffffffffffffffffffffffffffffffffff1673ffffffffffffffffffffffffffffffffffffffff168152602001908152602001600020600201600083815260200190815260200160002060006101000a81548160ff021916908315150217905550803373ffffffffffffffffffffffffffffffffffffffff167f62500381f39eb6f48b6e6f104021ceeaca9e5354918dc17b4a15bf87c5f5d28b60405160405180910390a350565b606080600060038054905067ffffffffffffffff8111156110b9576110b86118fd565b5b6040519080825280602002602001820160405280156110ec57816020015b60608152602001906001900390816110d75790505b50905060005b60038054905081101561123357600460006003838154811061111757611116611f6f565b5b9060005260206000200160009054906101000a900473ffffffffffffffffffffffffffffffffffffffff1673ffffffffffffffffffffffffffffffffffffffff1673ffffffffffffffffffffffffffffffffffffffff168152602001908152602001600020600101805461118a90611f3e565b80601f01602080910402602001604051908101604052809291908181526020018280546111b690611f3e565b80156112035780601f106111d857610100808354040283529160200191611203565b820191906000526020600020905b8154815290600101906020018083116111e657829003601f168201915b505050505082828151811061121b5761121a611f6f565b5b602002602001018190525080806001019150506110f2565b50600381818054806020026020016040519081016040528092919081815260200182805480156112b857602002820191906000526020600020905b8160009054906101000a900473ffffffffffffffffffffffffffffffffffffffff1673ffffffffffffffffffffffffffffffffffffffff168152602001906001019080831161126e575b5050505050915092509250509091565b600080821180156112db57506000548211155b61131a576040517f08c379a000000000000000000000000000000000000000000000000000000000815260040161131190612390565b60405180910390fd5b600460008473ffffffffffffffffffffffffffffffffffffffff1673ffffffffffffffffffffffffffffffffffffffff168152602001908152602001600020600201600083815260200190815260200160002060009054906101000a900460ff16905092915050565b600460003373ffffffffffffffffffffffffffffffffffffffff1673ffffffffffffffffffffffffffffffffffffffff16815260200190815260200160002060000160009054906101000a900460ff16611496576001600460003373ffffffffffffffffffffffffffffffffffffffff1673ffffffffffffffffffffffffffffffffffffffff16815260200190815260200160002060000160006101000a81548160ff0219169083151502179055506003339080600181540180825580915050600190039060005260206000200160009091909190916101000a81548173ffffffffffffffffffffffffffffffffffffffff021916908373ffffffffffffffffffffffffffffffffffffffff1602179055505b60008151116114da576040517f08c379a00000000000000000000000000000000000000000000000000000000081526004016114d19061253c565b60405180910390fd5b80600460003373ffffffffffffffffffffffffffffffffffffffff1673ffffffffffffffffffffffffffffffffffffffff1681526020019081526020016000206001019081611529919061222d565b5050565b6040518060a0016040528060008152602001600073ffffffffffffffffffffffffffffffffffffffff1681526020016060815260200160608152602001600081525090565b6000604051905090565b600080fd5b600080fd5b6000819050919050565b61159981611586565b81146115a457600080fd5b50565b6000813590506115b681611590565b92915050565b6000602082840312156115d2576115d161157c565b5b60006115e0848285016115a7565b91505092915050565b6115f281611586565b82525050565b600073ffffffffffffffffffffffffffffffffffffffff82169050919050565b6000611623826115f8565b9050919050565b61163381611618565b82525050565b600081519050919050565b600082825260208201905092915050565b60005b83811015611673578082015181840152602081019050611658565b60008484015250505050565b6000601f19601f8301169050919050565b600061169b82611639565b6116a58185611644565b93506116b5818560208601611655565b6116be8161167f565b840191505092915050565b600060a0820190506116de60008301886115e9565b6116eb602083018761162a565b81810360408301526116fd8186611690565b905081810360608301526117118185611690565b905061172060808301846115e9565b9695505050505050565b600081519050919050565b600082825260208201905092915050565b6000819050602082019050919050565b61175f81611586565b82525050565b61176e81611618565b82525050565b600082825260208201905092915050565b600061179082611639565b61179a8185611774565b93506117aa818560208601611655565b6117b38161167f565b840191505092915050565b600060a0830160008301516117d66000860182611756565b5060208301516117e96020860182611765565b50604083015184820360408601526118018282611785565b9150506060830151848203606086015261181b8282611785565b91505060808301516118306080860182611756565b508091505092915050565b600061184783836117be565b905092915050565b6000602082019050919050565b60006118678261172a565b6118718185611735565b93508360208202850161188385611746565b8060005b858110156118bf57848403895281516118a0858261183b565b94506118ab8361184f565b925060208a01995050600181019050611887565b50829750879550505050505092915050565b600060208201905081810360008301526118eb818461185c565b905092915050565b600080fd5b600080fd5b7f4e487b7100000000000000000000000000000000000000000000000000000000600052604160045260246000fd5b6119358261167f565b810181811067ffffffffffffffff82111715611954576119536118fd565b5b80604052505050565b6000611967611572565b9050611973828261192c565b919050565b600067ffffffffffffffff821115611993576119926118fd565b5b61199c8261167f565b9050602081019050919050565b82818337600083830152505050565b60006119cb6119c684611978565b61195d565b9050828152602081018484840111156119e7576119e66118f8565b5b6119f28482856119a9565b509392505050565b600082601f830112611a0f57611a0e6118f3565b5b8135611a1f8482602086016119b8565b91505092915050565b60008060408385031215611a3f57611a3e61157c565b5b600083013567ffffffffffffffff811115611a5d57611a5c611581565b5b611a69858286016119fa565b925050602083013567ffffffffffffffff811115611a8a57611a89611581565b5b611a96858286016119fa565b9150509250929050565b600060a083016000830151611ab86000860182611756565b506020830151611acb6020860182611765565b5060408301518482036040860152611ae38282611785565b91505060608301518482036060860152611afd8282611785565b9150506080830151611b126080860182611756565b508091505092915050565b60006020820190508181036000830152611b378184611aa0565b905092915050565b6000602082019050611b5460008301846115e9565b92915050565b611b6381611618565b8114611b6e57600080fd5b50565b600081359050611b8081611b5a565b92915050565b600060208284031215611b9c57611b9b61157c565b5b6000611baa84828501611b71565b91505092915050565b600081519050919050565b600082825260208201905092915050565b6000819050602082019050919050565b60008115159050919050565b611bf481611bdf565b82525050565b6000611c068383611beb565b60208301905092915050565b6000602082019050919050565b6000611c2a82611bb3565b611c348185611bbe565b9350611c3f83611bcf565b8060005b83811015611c70578151611c578882611bfa565b9750611c6283611c12565b925050600181019050611c43565b5085935050505092915050565b60006040820190508181036000830152611c978185611690565b90508181036020830152611cab8184611c1f565b90509392505050565b600081519050919050565b600082825260208201905092915050565b6000819050602082019050919050565b6000611cec8383611765565b60208301905092915050565b6000602082019050919050565b6000611d1082611cb4565b611d1a8185611cbf565b9350611d2583611cd0565b8060005b83811015611d56578151611d3d8882611ce0565b9750611d4883611cf8565b925050600181019050611d29565b5085935050505092915050565b600081519050919050565b600082825260208201905092915050565b6000819050602082019050919050565b6000611d9b8383611785565b905092915050565b6000602082019050919050565b6000611dbb82611d63565b611dc58185611d6e565b935083602082028501611dd785611d7f565b8060005b85811015611e135784840389528151611df48582611d8f565b9450611dff83611da3565b925060208a01995050600181019050611ddb565b50829750879550505050505092915050565b60006040820190508181036000830152611e3f8185611d05565b90508181036020830152611e538184611db0565b90509392505050565b60008060408385031215611e7357611e7261157c565b5b6000611e8185828601611b71565b9250506020611e92858286016115a7565b9150509250929050565b611ea581611bdf565b82525050565b6000602082019050611ec06000830184611e9c565b92915050565b600060208284031215611edc57611edb61157c565b5b600082013567ffffffffffffffff811115611efa57611ef9611581565b5b611f06848285016119fa565b91505092915050565b7f4e487b7100000000000000000000000000000000000000000000000000000000600052602260045260246000fd5b60006002820490506001821680611f5657607f821691505b602082108103611f6957611f68611f0f565b5b50919050565b7f4e487b7100000000000000000000000000000000000000000000000000000000600052603260045260246000fd5b7f506f737420636f6e74656e742063616e6e6f7420626520656d70747900000000600082015250565b6000611fd4601c83611644565b9150611fdf82611f9e565b602082019050919050565b6000602082019050818103600083015261200381611fc7565b9050919050565b7f4e487b7100000000000000000000000000000000000000000000000000000000600052601160045260246000fd5b600061204482611586565b91507fffffffffffffffffffffffffffffffffffffffffffffffffffffffffffffffff82036120765761207561200a565b5b600182019050919050565b60008190508160005260206000209050919050565b60006020601f8301049050919050565b600082821b905092915050565b6000600883026120e37fffffffffffffffffffffffffffffffffffffffffffffffffffffffffffffffff826120a6565b6120ed86836120a6565b95508019841693508086168417925050509392505050565b6000819050919050565b600061212a61212561212084611586565b612105565b611586565b9050919050565b6000819050919050565b6121448361210f565b61215861215082612131565b8484546120b3565b825550505050565b600090565b61216d612160565b61217881848461213b565b505050565b5b8181101561219c57612191600082612165565b60018101905061217e565b5050565b601f8211156121e1576121b281612081565b6121bb84612096565b810160208510156121ca578190505b6121de6121d685612096565b83018261217d565b50505b505050565b600082821c905092915050565b6000612204600019846008026121e6565b1980831691505092915050565b600061221d83836121f3565b9150826002028217905092915050565b61223682611639565b67ffffffffffffffff81111561224f5761224e6118fd565b5b6122598254611f3e565b6122648282856121a0565b600060209050601f8311600181146122975760008415612285578287015190505b61228f8582612211565b8655506122f7565b601f1984166122a586612081565b60005b828110156122cd578489015182556001820191506020850194506020810190506122a8565b868310156122ea57848901516122e6601f8916826121f3565b8355505b6001600288020188555050505b505050505050565b600060608201905061231460008301866115e9565b81810360208301526123268185611690565b9050818103604083015261233a8184611690565b9050949350505050565b7f496e76616c696420706f73742049440000000000000000000000000000000000600082015250565b600061237a600f83611644565b915061238582612344565b602082019050919050565b600060208201905081810360008301526123a98161236d565b9050919050565b7f55736572206e6f74207265676973746572656400000000000000000000000000600082015250565b60006123e6601383611644565b91506123f1826123b0565b602082019050919050565b60006020820190508181036000830152612415816123d9565b9050919050565b600061242782611586565b915061243283611586565b925082820390508181111561244a5761244961200a565b5b92915050565b7f416c7265616479206c696b6564207468697320706f7374000000000000000000600082015250565b6000612486601783611644565b915061249182612450565b602082019050919050565b600060208201905081810360008301526124b581612479565b9050919050565b60006124c782611586565b91506124d283611586565b92508282019050808211156124ea576124e961200a565b5b92915050565b7f557365726e616d652063616e6e6f7420626520656d7074790000000000000000600082015250565b6000612526601883611644565b9150612531826124f0565b602082019050919050565b6000602082019050818103600083015261255581612519565b905091905056fea26469706673582212205d68fe40d603bd72dc4b087d5bfa5c145b77f8e98e4d6948599af374eef0260b64736f6c63430008180033",
  "linkReferences": {},
  "deployedLinkReferences": {}
}